:10000E0000000001010100010000010001010000DB
:10001E0001000001000101010000000001000001CB
:10002E0001000100000000010101010000010100BA
:10003E0000010000010000000101010100000000AC
:10004E00010000010000010100000001010100009B
:10005E000100010000010001010001000001010189
:10006E00000000000101000100000100000000017D
:10007E00010000010100000100010100010000006B
:10008E00000101000001010000010001010001005A
:10009E00000000000101010100010000010100004B
:1000AE00010000000000010101010001000001013A
:1000BE00000001000000000101000101000000002D
:1000CE00010100010100000000010100010100001A
:1000DE00000001010001010000000001010100000B
:1000EE0000000100000100000100000000010101FC
:1000FE0000000000010000010000010000000000EF
:10010E0000000000000000000000000000000000E1
:10011E0000000101000000010000000100000100CC
:10012E0001000100000100000101000001000000BB
:10013E0001010101000001000000000001010000AA
:10014E00010000010000010100000100000100019A
:10015E00000001000100000001000000000100008D
:10016E000000000000000000000000000000000081
:10017E000000000000000000000000000000000071
:10018E00000100000000000000000001010000005E
:10019E00000000000001000100000000000000014E
:1001AE00000001000000000000010001000000003E
:1001BE00000000010100000000000000000100002E
:1001CE000000000000000000000000000000000021
:1001DE000000000000000000000000000000000011
:1001EE000000000000000000000000000001000000
:1001FE0001010000010000000101000001010000EA
:10020E0000000101000001010000000100000101D9
:10021E0000000100000100000101000001000000CB
:10022E0001010000010100000000010100000101B8
:10023E0000000001000001010000010000000000AC
:06024E00000000000000AA
:1003F000081C804020100804020108117FBFDFEFB5
:10040000F7FBFDFE010E00010C0A010A00011900B4
:10041000010B00012500012403010D00021A000058
:10042000020F0000A06E00000000000000000000AD
:1004300000000000000000000000000000000000BC
:1004400000000000000000000000000000000000AC
:10045000000000000000000000000000000000009C
:10046000000000000000000000000000000000008C
:10047000000000000000000000000000000000007C
:10048000000000000000000000000000000000006C
:100490000000000000606E006E0000000000000020
:1004A000000000000000000000000000000000004C
:1004B000000000000000000000000000000000003C
:1004C000000000000000000000000000000000002C
:1004D000000000000000000000000000000000001C
:1004E000000000000000000000000000000000000C
:1004F00000000000000000000000000000000000FC
:0B0500000000000000000002080000E6
:0F0BFA00E4F526AE0FAF10FC7D07120363AF05C5
:010C090022C8
:080C4300E4F526E5105403FF5F
:010C4B002286
:100BDB00E4FDEDC39408748094805010EE25E0FE84
:0E0BEB00EF54014206EFC313FF0D80E6AF0684
:010BF90022D9
:07000300120BDBEFF4F5A086
:01000A0022D3
:040C1A007FE87E03EE
:0B0C1E00EF1FAC0670011E4C70F622A8
:10050C00E4F5267590F7AF90EF64F76028120C1A9B
:10051C00AF90EF2449601124E0601224F0601324A2
:10052C00707012752601800D7526058008752609D8
:10053C00800375260DAF90EF64F770F97590FBAFE3
:10054C0090EF64FB6028120C1AAF90EF24456011F9
:10055C0024E0601224F0601324707012752602805F
:10056C000D752606800875260A800375260EAF9039
:10057C00EF64FB70F97590FDAF90EF64FD6028128D
:10058C000C1AAF90EF2443601124E0601224F06049
:10059C001324707012752603800D7526078008755C
:1005AC00260B800375260FAF90EF64FD70F97590E4
:1005BC00FEAF90EF64FE6028120C1AAF90EF24424D
:1005CC00601124E0601224F0601324707012752600
:1005DC0004800D752608800875260C80037526107E
:0905EC00AF90EF64FE70F9AF2638
:0105F50022E3
:100C0A00438901758CFC758A18D2A9D2AFD28C227D
:020B2C00AD0713
:100B2E00E4FBEBC39408748094805024EDC413133B
:100B3E0013540124FF92B4ED25E0FDC2B67F017E71
:100B4E0000120C1ED2B67F017E00120C1E0B80D23C
:0B0B5E00D2B57F017E00120C1EC2B554
:010B69002269
:060932007BFE7A00790053
:060938008B278A288929A3
:10093E00E4F52CF52BC3E52B94087480948050605D
:10094E00E4F52AF52CC3E52C94087480948050337A
:10095E00E52C75F00AA4AB272529F9E52835F0FA20
:10096E00E52B2415FFE433FEE92FF9EA3EFA1203D4
:10097E004A6401700A741C252CF8E6252AF52A050E
:10098E002C80C27411252BF8E6F580AF2A120B2CA1
:10099E007F327E00120C1EE4FF120B2C052B80956D
:0109AE002226
:0C0A27008E2B8F2C8C2D8D2E8A2F8B3067
:100A3300E4FFEFC39403748094805052E4FEEEC34A
:100A43009403748094805043E52C75F024A4240E01
:100A5300F582E43400F58375F009E52E1203B875C9
:100A6300F003EF1203B8E5822EF582E43583F583B4
:100A7300E49364017012E5302EFDE5322F75F00A20
:0E0A8300A424002DF87401F20E80B30F80A49D
:010A91002242
:10076400750E0178007C007DFE7BFF7A01790A7E9C
:10077400007F6E120324751A00751B05E51B451ACC
:10078400600512093280F5E4F50D752403FE7F6ED1
:10079400FD7BFE7A0079001203C47E007F6E7D002B
:1007A4007B017A00796E1203C4E4FFEFC3940A74E8
:1007B400809480504FEF75F00AA4246EF582E434DF
:1007C40000F5837401F0EF75F00AA42477F582E450
:1007D4003400F5837401F074D22FF582E43400F50B
:1007E400837401F0EF75F00AA42400F87401F2EFA9
:1007F40075F00AA42409F87401F274642FF87401E2
:04080400F20F80A7C8
:0108080022CD
:0E0C2900E50E64026004750E0222750E0122B3
:0C0C3700150CE50C640F7003750C042212
:0409AF008F2B8D2CD1
:1009B300E4FFEFC39403748094805065E4FEEEC3B8
:1009C3009403748094805056E50A75F024A4240E91
:1009D300F582E43400F58375F009E50B1203B8756D
:1009E300F003EF1203B8E5822EF582E43583F58335
:1009F300E49364017025E52B2EFDE52C2F75F00A99
:100A0300A4246EF582E43400F583E5822DF582E4B7
:100A13003583F583E064017002FF220E80A00F800E
:030A2300917F01BF
:010A260022AD
:080809008E268F278C288D2913
:10081100E4FC850B2A050BE50B64047002F50BAFB4
:1008210029AD271209AFEF6072E4FFEFC39403749F
:100831008094805051E4FCECC39403748094805004
:1008410042E50A75F024A4240EF582E43400F58310
:1008510075F009E52A1203B875F003EF1203B8E544
:10086100822CF582E43583F583E49364017011E50C
:10087100292CFEE5272F75F00AA424002EF8E4F2B6
:100881000C80B40F80A5AF0A7E00AD0B7C008526DD
:1008910031852732AB29AA28020A27150BE50B70EF
:0408A10003750B03CD
:0108A5002230
:03000B00020A9254
:040A9200C0E0C0D030
:100A9600758CFC758A180509E509700205080510AC
:100AA600E5107002050FE509646445087019D3E581
:100AB6001B9400E51A94004008E51B151B700215EF
:100AC6001A750800750900D3E5109410E50F9427F0
:080AD6004006750F00751000C9
:050ADE00D0D0D0E03291
:0206B1008F2692
:1006B300852427852528E52614600E14601224025C
:1006C3007013E52414F527800CE52404F527800531
:1006D300E52504F528AD28AF271209AFEF6079E4CB
:1006E300FFEFC39403748094805051E4FEEEC394EF
:1006F30003748094805042E50A75F024A4240EF517
:1007030082E43400F58375F009E50B1203B875F044
:1007130003EF1203B8E5822EF582E43583F583E413
:100723009364017011E5242EFDE5252F75F00AA4CD
:1007330024002DF8E4F20E80B40F80A585272485CC
:100743002825AF0A7E00AD0B7C00AB247A00E5259B
:10075300753100F532020A27E52664027002F519A5
:010763002273
:100BA800EFD39400748094804028E4FEEEC3940848
:100BB800748094805019EF75F00AA424012EF8E28D
:100BC800FDEF75F00AA4240B2EF8EDF20E80DD1F60
:020BD80080CECD
:010BDA0022F8
:100B6A00E4FC7B08EBD3940074809480402FE4FF6C
:100B7A00EFC39408748094805012EB75F00AA42491
:100B8A000B2FF8E2640170010C0F80E4EC6408702A
:0D0B9A0007AF03120BA8050DE4FC1B80C77C
:010BA700222B
:100AE300E4F526C3E526940874809480503A748311
:100AF3002526F582E43400F583E06401702678004E
:100B03007C007DFE7BFF7A0179E6FE7F6E12032473
:100B1300751A00751B05E51B451A6005120932801D
:080B2300F5E4F50E052680BB88
:010B2B0022A7
:1005F600120C0A12050CEF24FB601B24FC601C2461
:10060600FE601D24FD6026146027146028240F70E8
:1006160029120C378024120764801F120C29801AB5
:10062600AF257E00AD247C00120809800DE4FF8012
:10063600067F0280027F011206B1E50E6401706535
:10064600E5197041120B6AAF0D120003786E7C003B
:100656007D017BFE7A0079007E007F6E1203247591
:100666002403E4F525120BFA8F0A120C438F0BAF05
:100676000A7E00AD0B7C00E4F531F5327B03FA12FD
:100686000A27751901E51B451A7011E519640170F1
:100696000B7F021206B1751A00850C1BE519640161
:0B06A6007003120AE31209320205F98A
:030000000208A64D
:0C08A600787FE4F6D8FD7581320208ED81
:10025400E709F608DFFA8046E709F208DFFA803E8C
:1002640088828C83E709F0A3DFFA8032E309F60879
:10027400DFFA8078E309F208DFFA807088828C83E1
:10028400E309F0A3DFFA806489828A83E0A3F60895
:10029400DFFA805889828A83E0A3F208DFFA804C6F
:1002A40080D280FA80C680D4806980F28033801046
:1002B40080A680EA809A80A880DA80E280CA8033AF
:1002C40089828A83ECFAE493A3C8C582C8CCC58327
:1002D400CCF0A3C8C582C8CCC583CCDFE9DEE780F7
:1002E4000D89828A83E493A3F608DFF9ECFAA9F076
:1002F400EDFB2289828A83ECFAE0A3C8C582C8CCCC
:10030400C583CCF0A3C8C582C8CCC583CCDFEADEE4
:10031400E880DB89828A83E493A3F208DFF980CC46
:1003240088F0EF60010E4E60C388F0ED2402B4043F
:100334000050B9F582EB2402B4040050AF232345E6
:0603440082239002A47365
:10034A00BB010689828A83E0225002E722BBFE02B1
:09035A00E32289828A83E49322E4
:10036300BC000BBE0029EF8DF084FFADF022E4CC7E
:10037300F875F008EF2FFFEE33FEEC33FCEE9DEC47
:10038300984005FCEE9DFE0FD5F0E9E4CEFD22ED8D
:10039300F8F5F0EE8420D21CFEADF075F008EF2FD7
:1003A300FFED33FD4007985006D5F0F222C398FDC8
:0503B3000FD5F0EA2265
:0C03B800A42582F582E5F03583F5832250
:1003C400EF4E6012EF60010EEDBB010B89828A8350
:1003D400F0A3DFFCDEFA2289F05007F709DFFCA95D
:0C03E400F022BBFEFCF309DFFCA9F022B4
:1008B2000205F6E493A3F8E493A34003F68001F261
:1008C20008DFF48029E493A3F85407240CC8C33347
:1008D200C4540F4420C8834004F456800146F6DF16
:1008E200E4800B01020408102040809003F0E47EB3
:1008F200019360BCA3FF543F30E509541FFEE4930B
:10090200A360010ECF54C025E060A840B8E493A3D1
:10091200FAE493A3F8E493A3C8C582C8CAC583CAFC
:10092200F0A3C8C582C8CAC583CADFE9DEE780BEB4
:01050B0000EF
:00000001FF
